S01A00006C6F77506F776572536D6F6B65416C61726D2E73726563BF
S11300000C9434000C943E000C943E000C943E007E
S11300100C943E000C943E000C9457000C943E004B
S11300200C943E000C943E000C943E000C943E0054
S11300300C943E000C943E000C943E000C943E0044
S11300400C943E000C943E000C943E000C943E0034
S11300500C943E000C943E000C943E000C943E0024
S11300600C943E000C943E0011241FBECFEFD8E048
S1130070DEBFCDBF0E94AF000C940D010C940000B4
S113008083B7846083BF83B7816083BFE0E6F0E019
S113009088E1808380E28083808180648083089506
S11300A080E002C088958F5F8E31E0F308951F923F
S11300B00F920FB60F9211240F900FBE0F901F9046
S11300C0189587B18E7F87B9EAE7F0E080E88083EE
S11300D080818760808380E480937C000895EAE7D0
S11300E0F0E080818064808380917A0084FFFCCF7B
S11300F0209178008091790090E0982F8827822BB6
S1130100089588E08093C10086E08093C20087E66A
S11301108093C40008959091C00095FFFCCF809314
S1130120C60008951F93CF93DF93EC0110E007C03E
S1130130FE01E80FF91F80810E948B001F5F812F51
S113014090E0FE0101900020E9F73197EC1BFD0BD4
S11301508E179F0768F3DF91CF911F910895CF9376
S1130160DF9300D000D000D0CDB7DEB70E9481006D
S11301700E9461000E94400078940E946F004AE04F
S1130180BE016F5F7F4F0E94D800CE0101960E948E
S113019092008DE00E948B008AE00E948B008FE326
S11301A09CE90197F1F700C000000E945000E5CFE0
S11301B0BB274A3031F4992322F4BDE2909581950E
S11301C09F4F0C94E400BB27FB015527AA27880FF7
S11301D0991FAA1FA41710F0A41B83955051B9F7B7
S11301E0A05DAA3308F0A95DA193009779F7B11136
S11301F0B1931192CB010C94FD00DC01FC01672F3B
S113020071917723E1F7329704C07C916D937083E9
S11102106291AE17BF07C8F30895F894FFCFAC
S9030000FC
