:100000000C9434000C9446000C9446000C9446006A
:100010000C9446000C9446000C946D000C94460021
:100020000C9446000C9446000C9446000C94460038
:100030000C9446000C9446000C9446000C94460028
:100040000C9446000C9446000C9446000C94460018
:100050000C9446000C9446000C9446000C94460008
:100060000C9446000C94460011241FBECFEFD8E03C
:10007000DEBFCDBF21E0A0E0B1E001C01D92A830FD
:10008000B207E1F70E94F0000C946D010C9400009F
:1000900083E886BD14BC83E085BDA89BFECF15BC5C
:1000A00081E085BB9BB189278BB9089583B78460B4
:1000B00083BF83B7816083BFE0E6F0E088E180839F
:1000C00080E28083808180648083089580E002C024
:1000D00088958F5F8F30E0F308951F920F920FB6CF
:1000E0000F9211240F900FBE0F901F90189587B19B
:1000F0008E7F87B9EAE7F0E080E8808380818760BF
:10010000808380E480937C000895EAE7F0E08081BA
:100110008064808380917A0084FFFCCF20917800F6
:100120008091790090E0982F8827822B089588E0AD
:100130008093C10086E08093C20087E68093C4006C
:1001400008959091C00095FFFCCF8093C60008955C
:100150001F93CF93DF93EC0110E007C0FE01E80F7F
:10016000F91F80810E94A1001F5F812F90E0FE0196
:1001700001900020E9F73197EC1BFD0B8E179F07CC
:1001800068F3DF91CF911F91089521C085B18260FE
:1001900085B90E94850090930101809300014AE097
:1001A00062E071E00E94380182E091E00E94A800C4
:1001B0008DE00E94A1008AE00E94A1002FEF81EE55
:1001C00094E0215080409040E1F700C000000E9480
:1001D000850081399140D4F685B18D7F85B9089528
:1001E00084B1826084B981E08AB98BB90E9497009A
:1001F0000E9477000E94C5000E94560078940E94D9
:10020000850090930101809300014AE062E071E073
:100210000E94380182E091E00E94A8008DE00E94D7
:10022000A1008AE00E94A1008FE39CE90197F1F709
:1002300000C000000E9466000E948500893592403F
:10024000F4F2C0E0D0E003C00E9448002196CE3511
:1002500081E0D807CCF38BB18E7F8BB99FEF21EE75
:1002600084E0915020408040E1F700C00000E9CFD9
:10027000BB274A3031F4992322F4BDE29095819551
:100280009F4F0C944401BB27FB015527AA27880FD9
:10029000991FAA1FA41710F0A41B83955051B9F7FA
:1002A000A05DAA3308F0A95DA193009779F7B11179
:1002B000B1931192CB010C945D01DC01FC01672F1D
:1002C00071917723E1F7329704C07C916D9370832D
:0E02D0006291AE17BF07C8F30895F894FFCFF0
:00000001FF
